S017000054696D65725F4368616C6C656E67652E737265632A
S11300000C9432000C9444000C9444000C9444006E
S11300100C9449030C941D030C9444000C94440068
S11300200C9444000C9444000C9444000C9444003C
S11300300C9444000C9444000C9444000C9444002C
S11300400C9444000C9444000C9444000C9444001C
S11300500C9444007D028002840288028C02900287
S11300609402980211241FBECFE5D8E0DEBFCDBFB5
S113007020E0A0E6B0E001C01D92A236B207E1F78D
S11300800E946F010C947B030C940000CF93C62F45
S113009062E00E94B902CC2319F0C13061F015C0AE
S11300A04FEF64E083E00E94160140E068E083E0E3
S11300B00E9416010AC040E064E083E00E94160139
S11300C04FEF68E083E00E941601CF9108954FEF4F
S11300D060E183E00E94D6004FEF64E083E00E9479
S11300E0D6004FEF68E083E00E94D6004FEF60E156
S11300F083E00E94160160E080E00E9446000895BB
S1130100CF93C62F62E00E94B902CC2319F0C1300C
S113011061F015C04FEF60E483E00E94160140E0F7
S113012060E883E00E9416010AC040E060E483E0D6
S11301300E9416014FEF60E883E00E941601CF9100
S113014008954FEF60E283E00E94D6004FEF60E431
S113015083E00E94D6004FEF60E883E00E94D6005F
S11301604FEF60E283E00E94160160E080E00E94AD
S113017080000895CF93C82F4FEF60E483E00E947E
S1130180160140E060E883E00E9416014FEF64E04E
S113019083E00E94160140E068E083E00E941601BB
S11301A062E08C2F0E94B902CF9108958130A1F0B2
S11301B028F08230F9F0833059F10895442319F07E
S11301C04F3F31F008958AB3609568236ABB089560
S11301D08AB3682B6ABB0895442319F04F3F31F06A
S11301E0089587B36095682367BB089587B3682B28
S11301F067BB0895442319F04F3F31F0089584B349
S11302006095682364BB089584B3682B64BB089528
S1130210442319F04F3F31F0089581B3609568236A
S113022061BB089581B3682B61BB0895442319F021
S11302304F3FE9F00895813059F028F0823069F099
S1130240833081F008958BB3609568236BBB089568
S113025088B36095682368BB089585B36095682367
S113026065BB089582B36095682362BB08958130AD
S113027051F028F0823059F0833069F008958BB33F
S1130280682B6BBB089588B3682B68BB089585B34E
S1130290682B65BB089582B3682B62BB08958130D7
S11302A061F028F0823079F0833099F008954FEFAF
S11302B060E181E00E94D60008954FEF60E281E0A2
S11302C00E94D60008954FEF60E481E00E94D600BA
S11302D008954FEF60E881E00E94D60008958FB73B
S11302E080688FBF0E9467000E94A10080E00E9486
S11302F04F01C0E08C2F0E94BA0084E190E00E947C
S11303000702CF5FCF3FB1F78C2F0E94BA0084E180
S113031090E00E940702C150B9F7EBCFEF920F9320
S11303209E2D40936000882319F0883021F006C088
S113033083B783BF03C083B7886083BF603149F04C
S113034018F4662391F013C0603259F0603329F039
S11303500EC083B7806183BF0AC083B7806383BF45
S113036006C083B7806283BF02C083B783BF4230B5
S113037099F028F4442349F0413051F01CC0443032
S113038099F070F04530A1F016C083B783BF13C055
S113039083B7816083BF0FC083B7826083BF0BC004
S11303A083B7836083BF07C083B7846083BF03C000
S11303B083B7856083BF913049F028F0923051F0C3
S11303C0933061F00EC089B789BF0BC089B78160D3
S11303D089BF07C089B7826089BF03C089B78360BA
S11303E089BF22BF0CBF0F91EF90089583B7869504
S11303F08695869583BF83B7880F880F880F83BF40
S1130400089593B780916000892B83BF0895CF929C
S1130410DF92EF92FF920F936C01E12C00E020E059
S113042042E060E080E00E948E0180E380936100FE
S113043082BF0E940102CC0CDD1CCC0CDD1CCC0C58
S1130440DD1CE12CF12CC114D104E104F104D9F038
S113045021E040E050E0BA0180E308B600FEFDCFA1
S11304602F5F283019F48093610021E098B738B7E2
S1130470932B98BF4F5F5F4F6F4F7F4F4C155D05B8
S11304806E057F0550F30E94F6010F91FF90EF90E7
S1130490DF90CF900895CF920F939C2D40936000EE
S11304A0882319F0883021F006C085B585BD03C0C6
S11304B085B5886085BD603149F018F4662391F0F4
S11304C013C0603259F0603329F00EC085B58061E5
S11304D085BD0AC085B5806385BD06C085B58062CB
S11304E085BD02C085B585BD50E04830510518F57D
S11304F0FA01E65DFF4F0C94750385B585BD1BC0FD
S113050085B5816085BD17C085B5826085BD13C082
S113051085B5836085BD0FC085B5846085BD0BC07E
S113052085B5856085BD07C085B5866085BD03C07A
S113053085B5876085BD903461F018F4992331F056
S113054013C0903851F0903C61F00EC089B789BF58
S11305500BC089B7806489BF07C089B7806889BF29
S113056003C089B7806C89BF24BD03BD0F91CF90B0
S11305700895CF92EF920F9383BD623039F128F43E
S1130580662351F06130A9F054C06430C9F158F1C8
S1130590653009F442C04DC003B50F2EF0ECCF2EE8
S11305A0F02DE12C20E042E060E080E00E944B026C
S11305B040C003B50F2EF0ECCF2EF02DE12C20E03F
S11305C043E060E080E00E944B0233C003B50F2E8D
S11305D0F0ECCF2EF02DE12C20E044E060E080E050
S11305E00E944B0226C003B50F2EF0ECCF2EF02D47
S11305F0E12C20E045E060E080E00E944B0219C05D
S113060003B50F2EF0ECCF2EF02DE12C20E046E0C8
S113061060E080E00E944B020CC003B50F2EF0ECAA
S1130620CF2EF02DE12C20E047E060E080E00E9436
S11306304B020F91EF90CF9008951F920F920FB637
S11306400F9211242F933F934F935F936F937F9354
S11306508F939F93AF93BF93EF93FF934FEF60E11B
S113066083E00E9416014FEF60E283E00E941601CE
S1130670FF91EF91BF91AF919F918F917F916F9176
S11306805F914F913F912F910F900FBE0F901F904C
S113069018951F920F920FB60F9211242F933F9328
S11306A04F935F936F937F938F939F93AF93BF9376
S11306B0EF93FF9340E060E183E00E94160140E085
S11306C060E283E00E941601FF91EF91BF91AF9128
S11306D09F918F917F916F915F914F913F912F9156
S11306E00F900FBE0F901F901895EE0FFF1F0590EF
S10D06F0F491E02D0994F894FFCF73
S9030000FC
